:020000041000EA
:1000000000B5324B212058609868022188439860DF
:10001000D860186158612E4B002199600221596106
:100020000121F02299502B49196001219960352056
:1000300000F044F80222904214D00621196600F024
:1000400034F8196E01211966002018661A6600F04E
:100050002CF8196E196E196E052000F02FF8012189
:100060000842F9D1002199601B49196000215960AB
:100070001A491B48016001219960EB211966A021F2
:10008000196600F012F800219960164914480160C1
:100090000121996001BC002800D000471248134993
:1000A000086003C880F30888084703B5996A0420EC
:1000B0000142FBD001200142F8D103BD02B5186610
:1000C0001866FFF7F2FF186E186E02BD00000240BE
:1000D000000000180000070000035F00212200005C
:1000E000F4000018222000A00001001008ED00E03C
:1000F00000000000000000000000000074B24E7A12
:1001000000200420F7010010C3010010C5010010F9
:10011000C1010010C1010010C1010010C101001097
:10012000C1010010C1010010C1010010C701001081
:10013000C1010010C1010010C9010010CB01001065
:10014000CD010010CD010010CD010010CD01001037
:10015000CD010010CD010010CD010010CD01001027
:10016000CD010010CD010010CD010010CD01001017
:10017000CD010010CD010010CD010010CD01001007
:10018000CD010010CD010010CD010010CD010010F7
:10019000CD010010CD010010CD010010CD010010E7
:1001A000CD010010CD010010CD010010CD010010D7
:1001B000CD010010CD010010CD010010CD010010C7
:1001C00000BE00BE00BE00BE00BE00BEEFF3058054
:1001D000103800BEF2EB8871007404102074041013
:1001E0003802001090A31AE71E481F49086006C88D
:1001F00081F3088810471D480068002801D019487D
:10020000F3E70DA40ECC002902D000F012F8F9E7B4
:100210001749184A002000E001C19142FCD116495B
:100220008847164988471649884700BEFDE701C937
:1002300001C29A42FBD3704720740410C000002012
:10024000BC2300201C9704100000042000000420A0
:100250001C9704100010042000100420000000006F
:10026000704700000000000008ED00E0000000D032
:10027000BC2300200042002091430010050E001016
:1002800053430010F8B5C0460448054B10B58342EF
:1002900003D0044B002B00D0984710BDBC23002096
:1002A000BC2300200000000006480749091A8B10F3
:1002B000C90FC91810B5491003D0044B002B00D04A
:1002C000984710BDBC230020BC2300200000000084
:1002D00010B5074C2378002B09D1FFF7D5FF054B4C
:1002E000002B02D0044800E000BF0123237010BDA2
:1002F0009025002000000000FCCE0010054B10B53A
:10030000002B03D00449054800E000BFFFF7CCFFF5
:1003100010BDC0460000000094250020FCCE001057
:1003200010B504F091F9C0B2094B07E05C1C1870DD
:1003300004F0AAF904F088F9C0B223000D2803D014
:10034000034A9A1AFE2AF1DD00221A70004810BDF5
:10035000E040002040680138704710B508001100E7
:1003600002F0F4FE10BD10B5040001688268521A54
:10037000002901D0FFF7F1FF200010BD10B50400E7
:10038000FFF7F1FF200010BD10B5081E02DB02F0E0
:10039000D5FE10BD0AF016FAF8B504000D1E1FDBDD
:1003A000836802689B1A8B4219D24768BF1A0029DA
:1003B00019D00022FFF7E8FF060021686268521A90
:1003C000002A12DC2168A268521A002902D02000FB
:1003D000FFF7C3FF2660F71967607619A660F8BDBE
:1003E00004480AF017FA0026E7E730000BF04EFD4C
:1003F000E8E7C04600CF001030B585B00400019199
:1004000041680368CB1A0E4DED1A019885420DD351
:10041000039398420DD803AA1068C0182368C91A1C
:10042000814208D8002808DB05B030BD10000AF072
:10043000F1F901AAF0E70248F6E70148F4E7C046FF
:10044000FFFFFF7FF8B5DE4657464E464546E0B50E
:1004500004008A469346214A0121FFF7CDFF070099
:10046000236899466368984653464A469D1A002871
:1004700026D0002201002000FFF786FF06005B4621
:100480001B787355002D1DDC013575194346524606
:100490009B1A9846002B1BDC4544A2684B46D21A97
:1004A000002B03D049462000FFF757FF2660656008
:1004B000F619A660F0BCBB46B246A946A046F8BDF8
:1004C0000026DCE72A00494630000BF0DFFCDBE7C2
:1004D0001A00514628000BF0D9FCDDE710CF0010C0
:1004E00010B5040043688268934208D00A781A70F5
:1004F0004368013343602000FFF72CFF10BD0A0062
:100500001900FFF79FFFF6E7F0B5ADB004000D004E
:10051000002303604360836008000CF0DBF94100B6
:10052000091849002000FFF737FF14E06B46D91D7A
:1005300000230B702000FFF7D3FF02A901230B70EB
:100540002000FFF7CDFF0921694402230B70200032
:10055000FFF7C6FF01352878002801D100F04FFCD5
:100560000BF08AFC20385A28F4D88000EC4B1B583A
:100570009F460A21694401230B702000FFF7B0FF5A
:100580000B21694400260E702000FFF7A9FF03A984
:100590000E702000FFF7A4FF0D2169440E702000AB
:1005A000FFF79EFF0E21694402230B702000FFF726
:1005B00097FFCFE70F21694401270F702000FFF755
:1005C0008FFF04A900260E702000FFF789FF11217C
:1005D00069440F702000FFF783FF122169440E70F9
:1005E0002000FFF77DFF1321694402230B702000D8
:1005F000FFF776FFAEE705A901230B702000FFF798
:100600006FFF1521694400260E702000FFF768FF78
:10061000162169440E702000FFF762FF172169441C
:1006200002230B702000FFF75BFF93E706A900236E
:100630000B702000FFF754FF1921694402230B704F
:100640002000FFF74DFF85E71A21694400260E7050
:100650002000FFF745FF1B2169440E702000FFF7C3
:100660003FFF07A901230B702000FFF739FF1D2171
:1006700069440E702000FFF733FF1E2169440223F6
:100680000B702000FFF72CFF64E71F21694401264F
:100690000E702000FFF724FF08A90E702000FFF75E
:1006A0001FFF2121694400230B702000FFF718FF72
:1006B0002221694402230B702000FFF711FF49E754
:1006C0002321694400260E702000FFF709FF09A9C5
:1006D0000E702000FFF704FF252169440E702000F2
:1006E000FFF7FEFE262169440E702000FFF7F8FE9A
:1006F0002721694402230B702000FFF7F1FE29E750
:100700000AA900260E702000FFF7EAFE292169449D
:100710000E702000FFF7E4FE2A21694402230B70CB
:100720002000FFF7DDFE15E72B21694400230B7045
:100730002000FFF7D5FE0BA901260E702000FFF761
:10074000CFFE2D2169440E702000FFF7C9FE2E2137
:1007500069440E702000FFF7C3FE2F216944022375
:100760000B702000FFF7BCFEF4E60CA901260E700A
:100770002000FFF7B5FE3121694400230B702000F3
:10078000FFF7AEFE322169440E702000FFF7A8FE8D
:100790003321694402230B702000FFF7A1FED9E644
:1007A0000DA900260E702000FFF79AFE352169443E
:1007B00001230B702000FFF793FE362169440E7071
:1007C0002000FFF78DFE372169440E702000FFF7EF
:1007D00087FE0EA902230B702000FFF781FEB9E609
:1007E0003921694401260E702000FFF779FE3A2175
:1007F00069440E702000FFF773FE3B216944022319
:100800000B702000FFF76CFEA4E60FA901230B700C
:100810002000FFF765FE3D21694400230B70200096
:10082000FFF75EFE3E21694402230B702000FFF7B4
:1008300057FE8FE63F21694401260E702000FFF726
:100840004FFE10A90E702000FFF74AFE41216944B7
:100850000E702000FFF744FE4221694402230B7012
:100860002000FFF73DFE75E64321694400260E7027
:100870002000FFF735FE11A901270F702000FFF7B8
:100880002FFE452169440F702000FFF729FE462105
:1008900069440E702000FFF723FE472169440223BC
:1008A0000B702000FFF71CFE54E612A901260E7003
:1008B0002000FFF715FE492169440E702000FFF764
:1008C0000FFE4A21694400230B702000FFF708FE49
:1008D0004B2169440E702000FFF702FE13A902238A
:1008E0000B702000FFF7FCFD34E64D216944002623
:1008F0000E702000FFF7F4FD4E21694401230B70B8
:100900002000FFF7EDFD4F2169440E702000FFF736
:10091000E7FD14A902230B702000FFF7E1FD19E6A3
:100920000CEB00105121694400260E702000FFF7E7
:10093000D7FD522169440E702000FFF7D1FD5321ED
:1009400069440E702000FFF7CBFD15A902230B7040
:100950002000FFF7C5FDFDE55521694401230B701B
:100960002000FFF7BDFD5621694402230B702000D3
:10097000FFF7B6FDEEE55721694400260E70200012
:10098000FFF7AEFD16A90E702000FFF7A9FD592153
:10099000694401230B702000FFF7A2FD5A2169442E
:1009A00002230B702000FFF79BFDD3E55B21694418
:1009B00000260E702000FFF793FD17A90E7020008F
:1009C000FFF78EFD5D2169440E702000FFF788FD62
:1009D0005E21694401230B702000FFF781FD5F2138
:1009E000694402230B702000FFF77AFDB2E518A9D5
:1009F00000230B702000FFF773FD6121694401267D
:100A00000E702000FFF76CFD622169440E7020001B
:100A1000FFF766FD6321694402230B702000FFF796
:100A20005FFD97E519A901260E702000FFF758FD1C
:100A30006521694400270F702000FFF751FD6621F2
:100A400069440F702000FFF74BFD672169440E7069
:100A50002000FFF745FD1AA902230B702000FFF7C5
:100A60003FFD77E56921694401260E702000FFF7FC
:100A700037FD6A21694400230B702000FFF730FD29
:100A80006B2169440E702000FFF72AFD1BA90E7030
:100A90002000FFF725FD6D21694402230B70200023
:100AA000FFF71EFD56E56E21694401260E702000F9
:100AB000FFF716FD6F2169440E702000FFF710FD4F
:100AC0001CA900260E702000FFF70AFD7121694461
:100AD0000E702000FFF704FD7221694402230B70A1
:100AE0002000FFF7FDFC35E57321694401260E70F7
:100AF0002000FFF7F5FC1DA90E702000FFF7F0FCA9
:100B0000752169440E702000FFF7EAFC76216944E4
:100B10000E702000FFF7E4FC772169440E7020007E
:100B2000FFF7DEFC1EA902230B702000FFF7D8FCA4
:100B300010E57921694400230B702000FFF7D0FCF9
:100B40007A21694401260E702000FFF7C9FC7B2141
:100B500069440E702000FFF7C3FC1FA90E7020002F
:100B6000FFF7BEFC7D2169440E702000FFF7B8FC42
:100B70007E21694402230B702000FFF7B1FCE9E4F9
:100B80007F21694400260E702000FFF7A9FC20A9F0
:100B90000E702000FFF7A4FC8121694401360E701D
:100BA0002000FFF79DFC822169440E702000FFF7B2
:100BB00097FC832169440E702000FFF791FC21A966
:100BC00002230B702000FFF78BFCC3E485216944EE
:100BD00000260E702000FFF783FC862169440E700A
:100BE0002000FFF77DFC872169440E702000FFF78D
:100BF00077FC22A901360E702000FFF771FC8921D5
:100C000069440E702000FFF76BFC8A2169440223BF
:100C10000B702000FFF764FC9CE48B2169440026E4
:100C20000E702000FFF75CFC23A90E702000FFF778
:100C300057FC8D2169440E702000FFF751FC8E2176
:100C400069440E702000FFF74BFC8F21694401239B
:100C50000B702000FFF744FC24A902230B70200036
:100C6000FFF73EFC76E49121694400260E702000D7
:100C7000FFF736FC922169440E702000FFF730FC2C
:100C8000932169440E702000FFF72AFC25A90E70FD
:100C90002000FFF725FC952169440E702000FFF726
:100CA0001FFC9621694402230B702000FFF718FCFB
:100CB00050E49721694401230B702000FFF710FCDA
:100CC00026A900260E702000FFF70AFC992169442E
:100CD0000E702000FFF704FC9A2169440E7020007A
:100CE000FFF7FEFB9B2169440E702000FFF7F8FB25
:100CF00027A902230B702000FFF7F2FB2AE49D21B5
:100D0000694401260E702000FFF7EAFB9E2169442A
:100D10000E702000FFF7E4FB9F21694400260E704F
:100D20002000FFF7DDFB28A90E702000FFF7D8FB9D
:100D3000A12169440E702000FFF7D2FBA221694473
:100D400002230B702000FFF7CBFBFFF703FCA3216E
:100D5000694401260E702000FFF7C2FB29A90E701E
:100D60002000FFF7BDFBA52169440E702000FFF7AE
:100D7000B7FBA621694400260E702000FFF7B0FBE8
:100D8000A72169440E702000FFF7AAFB2AA90223BD
:100D90000B702000FFF7A4FBFFF7DCFBA9216944DF
:100DA00001260E702000FFF79BFBAA2169440E70FC
:100DB0002000FFF795FBAB2169440E702000FFF780
:100DC0008FFB2BA90E702000FFF78AFBAD21694431
:100DD00000230B702000FFF783FBAE216944022340
:100DE0000B702000FFF77CFBFFF7B4FBAF216944D9
:100DF00003230B702000FFF773FBFFF7ABFB200012
:100E00002DB0F0BD30B585B003F01AFC06F02CFB18
:100E1000002848D02C4803F075FC0120404205B062
:100E200030BD032B17D1294803F03CFC284801F0C2
:100E300061F910E0274803F035FC0121002006F09D
:100E4000DFFAFA2001F056F90021002006F0D8FA66
:100E5000FA2001F04FF9631C1C009D4220D01B7842
:100E6000022B16D0DDD8002BE4D0012BF3D11A4889
:100E700003F018FC0121002006F0C2FA174801F027
:100E800039F90021002006F0BBFAFA2001F032F90E
:100E9000E1E7134803F006FC104801F02BF9DAE70C
:100EA00001A8FFF76BFA0F4803F0FCFBFFF738FAD5
:100EB00004000A2003F0E8FB210001A8FFF724FB4F
:100EC000019B029DC8E7C0462CCF001068CF0010E0
:100ED000DC05000054CF001058CF0010EE020000D7
:100EE00060CF001040CF001010B58300084A9A1858
:100EF00014684022544080322240064CA446634489
:100F00001A60C000044B9C466044416010BDC0465E
:100F100004C0014004D001400040014080000C4B5F
:100F20009C46604400290ED00823002A0DD00422DC
:100F30001343026853400C2213408022520194460E
:100F40006044036070470023EFE70022F0E7C046EB
:100F500004C00140002906D08000064B9C46604436
:100F60000223036070478000034B9C4660440223C9
:100F70000360F7E704E0014004F0014070B5D023BE
:100F80001B061B68094C9D002C59204207D1074DB8
:100F90009B0004435C510D2000F07CFA70BD044BB3
:100FA000044A0548DE2103F0D7F9C046C03E0020C0
:100FB00074CF00109CEC0010A0CF001010B50400FE
:100FC000D0231B061A680B4B9200D35818420BD043
:100FD0000D2000F06BFBD0231B061B6805499B000E
:100FE0005A58A2435A5010BD034B044A0448F221F8
:100FF00003F0B2F9C03E0020E8CF001078EC0010FA
:10100000A0CF0010072303409B00C00899403C304C
:101010008000014BC150704700400140F8B5070007
:101020000D0016001C00FFF7EDFFFB089B00E41805
:101030000720384080008540002E05D080239B018A
:101040009C4664442560F8BDC0239B019C466444D3
:101050002560F8E770B5002A0FD0D0231B061C6866
:101060000F4BA500EB58202810D40023DB0704D435
:101070000C4BA400E358002B0AD0D0231B061B689E
:10108000002B0BD0084BFFF7C9FF70BDC340EDE745
:10109000064B074A0748BE2103F05EF9064BF2E70C
:1010A000C03E00202C3100203041014014D00010FF
:1010B000D0EC0010A0CF00100041014010B501237A
:1010C0008340D0221206936293610521FFF70CFF43
:1010D00010BD000010B58023DB05186803051B0D4B
:1010E0000B4A934207D10B4B03408022920193425B
:1010F00007D1000F10BD084B084A0948222103F010
:101100002BF9084B054A0648232103F025F9C04670
:101110002709000000F0FF0F6CD00010E8EC001071
:1011200090D00010D8D000100FB400B583B008489C
:1011300003F0B8FA049B002B07D005A90191180011
:1011400003F0C0FA034803F0ADFA012003F0DEF823
:10115000ECD0001064E00010EFF3108072B6034B87
:101160001B68002BFBD0BFF35F8F70472C0100D0B2
:10117000BFF35F8F024B00221A6080F31088704724
:101180002C0100D0F8B506000C001500FFF7E4FFB5
:10119000E308F718F15C07222240012393400B4239
:1011A00005D1DBB20B433B70FFF7E2FFF8BD210036
:1011B0002800FFF7B9FFF0B583B0060001911400D5
:1011C0001F00FFF7C9FF00E00134BC420CD8E30860
:1011D000F518F35C0721214001228A401A42F3D11D
:1011E000D2B21A432A7001E001246442FFF7C0FF23
:1011F000002C02DB200003B0F0BD019B002BF9D0D6
:101200000898FFF791FF000070B505000C00FFF78C
:10121000A3FFE308EE18EA5C0721214001238B407D
:10122000134204D09A433270FFF7A2FF70BD034B04
:10123000034A0448332103F08FF8C046FCD0001065
:10124000FCEC00101CD10010054A1078431CDBB2E6
:101250001370172B02D9130010221A707047C04662
:10126000841D002010B582B00100054C054B009391
:101270001F2318222000FFF79EFF02B010BDC046BA
:101280003C31002060D10010002307E0054A9A1885
:101290009200BFF35F8F0021116001331F2BF5D93E
:1012A0007047C04640000034074B9B6810308000F8
:1012B0001950BFF35F8FBFF35F8F044B002119609C
:1012C00082F310887047C04600ED00E0240100D092
:1012D0000048704700E400E010B5FFF7F9FF002375
:1012E00002E0034A04C00133072BFAD910BDC046FF
:1012F000808080801F23181A7047000010B5038873
:10130000DA0A1C2A05D15B055B1502335B00C018A5
:1013100010BD034B034A10210348FF3103F01CF8B2
:101320007CD1001058ED001094D1001010B5091AAE
:101330000B1F0A4A88180A4A904208D8C90706D4DF
:101340005B105B055B0D0748184380B210BD064B70
:10135000064A02210648FF3102F0FEFFFC070000AA
:10136000FE0F000000E0FFFFD8D100104CED001090
:1013700094D1001010B5091A04394A08090B08D194
:101380004905490D064B0B430380064B134343802D
:1013900010BD054B054A0A210548FF3102F0DCFF6C
:1013A00000F0FFFF00F8FFFF08D2001028ED00104A
:1013B00094D1001001238340034A10681840431E53
:1013C0009841C0B27047C04600E100E0002A05D055
:1013D000044BC0225200995019607047014A802383
:1013E000D150FAE700E100E010B50A001F230340E6
:1013F000012199404009FFF7E9FF10BD0123834017
:10140000014A13607047C04600E200E0024B9B684F
:1014100010308000C058704700ED00E010B5FFF7B5
:10142000F5FF002805D0054BC01A2F2803D801204E
:1014300010BD0020FCE70020FAE7C046881D002010
:1014400070B504000D00EFF3108672B60C4B1B68EC
:10145000002BFBD0BFF35F8F2000FFF7D7FF094BB6
:10146000984201D0A84205D1320029002000FFF7A0
:101470001BFF70BD044B054A0548E12102F06CFFDB
:10148000240100D0CD01001018D2001080ED001012
:1014900094D10010F0B5DE4657464E464546E0B5BD
:1014A00089B0814601911500EFF3108B72B66F4B36
:1014B0001B68002BFBD0BFF35F8F6D4B00269E5740
:1014C000002E40DB7400A419A4006A4824180622E8
:1014D000A256674B1A70684B9A684B4610339B00B4
:1014E000D35898461B1A2F2B3BD9644B984531D1C2
:1014F00005AF634B3B80634973009A46981980009F
:101500005C4B984640440230FFF710FF78805E4BFA
:10151000BB80FF23BB71FD71019B079333005344D4
:101520009B00434407CF07C301231C43A0465A46F0
:1015300041464846FFF7B8FE09B0F0BCBB46B2468C
:10154000A946A046F0BD514B514A6E215148FF318A
:1015500002F002FF504B4E4ABA214E48490002F0B9
:10156000FBFE012342469A439246101A0C2101F0D9
:10157000B9F900290FD153460027DA79AA4212D9C6
:101580000621595600290DDB4A00521892003949AC
:101590001F008B18F1E7414B3D4A86213D48FF3142
:1015A00002F0DAFE1F00002F2ED005AB3C4A1A8055
:1015B000813A5A800623FB560293002B17DA3948EA
:1015C00005AB9A469880029A9A71DD71019A07924A
:1015D000381D2100FFF7AAFEB880BE71254B7200AE
:1015E000921992009B18524613CA13C39FE7381DE5
:1015F000FFF784FE01007000801980001D4BC018A9
:101600000430FFF793FEDBE705AF1D4B3B801D4920
:10161000730002939B199B00164A90461A0042449D
:101620000392901CFFF782FE7880039A101D5146AA
:10163000FFF77CFEB8801C4B52464146521A52417D
:1016400053431B0DBB71FD71019A0792029B9B19BD
:101650009B00434407CF07C3114B52461380813B85
:10166000538001231C43A04661E7C046240100D0FB
:10167000FA410020881D002000ED00E0CD0100109F
:1016800000A1FFFFB81D002001BDFFFF50D20010D8
:1016900068ED001094D1001078D20010A0D2001094
:1016A0000148000001BD0000AAAA0000F0B5CE4626
:1016B000474680B583B006000D00EFF3108872B680
:1016C0004F4B1B68002BFBD0BFF35F8F4D4B9A68CD
:1016D00034001034A300D7584B4B9F4207D0AF4281
:1016E00000D18AE00197494BFB1A2F2B09D94246BA
:1016F00039003000FFF7D8FD03B0C0BCB946B04692
:10170000F0BD3000FFF756FE814600213000FFF7A4
:101710006BFEBFF35F8FEFF30581002901D08C4290
:1017200011D10123019C9C430020A3689D4212D04B
:101730000622A256002A0DDB53009B189B00334A59
:101740002000D418F1E7324B324AF4213248FF31FD
:1017500002F002FE20009D4249D106256557002D6A
:101760002BDB2A4B6A00521992009B189A68A260E0
:10177000DA79E2719B795BB2A371002B0FDA27480B
:10178000A080224B6A00521992009B18244A1178BB
:101790009971157049463000FFF726FEA7E76800EB
:1017A00040198000194BC0180430FFF7A7FD010055
:1017B000231D1800FFF7BAFDE2E7002912D1002827
:1017C0000ED0FF238371174B838015490B78A371CB
:1017D0000E4A154BA41A644163431B0D0B70D9E7E5
:1017E000094FF2E71149201DFFF7C4FDD2E7104B66
:1017F000084A09480F4902F0AFFD034F77E7C0469A
:10180000240100D000ED00E0CD010010881D002073
:1018100024D3001038ED001094D1001001BD000059
:10182000FA41002001BDFFFFAAAA0000C21D00204E
:1018300058D300103502000070B505000C00FFF70A
:1018400047FDAB089B00C218116803232B40DB0047
:10185000FF20984081439C402143116070BD0000EF
:10186000F8B5012202432C4BD31A2F2B28D8EFF3C3
:101870000583002B2AD0EFF3108472B6274909683C
:101880000029FBD0BFF35F8F234D25490600761B4F
:1018900076417143090D4DB2224989689B00C958B0
:1018A000914219D00021032930D81B4B4A0052180D
:1018B00092009B189B795BB2AB421DD00131F2E7DD
:1018C000194B1A4A1A481B4902F046FD1A4B174A8F
:1018D00017481A4902F040FD124A92681849D1503F
:1018E000184B1A7882711D70BFF35F8F0B4B00226B
:1018F0001A6084F31088F8BD074B4A005618B600EA
:101900009E19FF27B771104AB280E9E70F4B074ACB
:1019100007480F4902F020FD881D0020240100D057
:10192000AAAA000000ED00E060D300100CED00104A
:1019300094D100106E02000088D3001071020000E4
:10194000CD010010FA41002001BDFFFF94D300102B
:101950008202000010B5FFF7CDFC0100024B180019
:10196000FFF752FC10BDC046FE41002010B582B00A
:101970000100074C074B0093052300222000FFF7CE
:101980001AFC002801DB1F23181A02B010BDC04644
:10199000FE4100209CD3001070B504000E0015001D
:1019A000FFF752FC0100200000F006F8A680E58059
:1019B000BFF35F8F70BD0000024B9C4661448900FD
:1019C000016070474000003410B50400FFF73CFC94
:1019D00001002000FFF7F0FFFF232371BFF35F8FAB
:1019E00010BD10B50400FFF72FFC01002000FFF729
:1019F000E3FFFF23237100236371BFF35F8F10BDEB
:101A000010B50D4C09E00D4B0D4A0E481A2102F09D
:101A1000A3FC2000FFF7D8FF08340B4B9C4209D2EF
:101A20002368002BF5D0012BEDD12000FFF7D9FF63
:101A30000834F2E710BDC046B4230020B8D300102C
:101A400014EE0010D8D30010BC230020034B9C469A
:101A5000614489000160BFF35F8F7047400000342C
:101A600010B504000120FFF7FDFB01002000FFF787
:101A7000EDFF10BD00040843704700000A4B1968D1
:101A8000EFF3108372B60A68002AFCD0BFF35F8FB1
:101A9000054A1268BFF35F8F0021116083F310883D
:101AA00040BF002000217047D4400020F0B5DE4642
:101AB00057464E464546E0B583B0EFF30583032213
:101AC0001A400092B04B9200D35898461B78009A67
:101AD000934207D10123009A93401A000193AB4B24
:101AE0001A6015E1AA4BAB4AAB48922102F034FCD4
:101AF00043465A694B465B004B44DB0093469B448C
:101B00005B469E68DF68A54800F0AAFB801BB941D0
:101B1000002900DA06E1002F60DB5B461C69A04B60
:101B20009C4245D043460820185E5B46598889B2DE
:101B3000FFF7A0FF5B465969A04704000D00230092
:101B40002B434BD0002D3DDA30003900001BA9415A
:101B50005B469860D96000241C5F002C00DAE1E04D
:101B600043465A69924663001B19DB0053449A6846
:101B7000DB6805000E00AD1A9E41002E00DAD1E0B0
:101B800043461C8147460837BC46634600255D5FD7
:101B9000002D1DDB6C006419E4005444A268E36866
:101BA00006000F00B61A9F41002F11DBA446ECE798
:101BB0005B465C6923692000984700280ED0656861
:101BC0002468BCE7754800F04BFB00196941BFE78A
:101BD0005B461D804B4662461380A3E05B460022B5
:101BE0009B5E424613811269EFF3108372B611684F
:101BF0000029FCD0BFF35F8F42460221525E594656
:101C00000A804246494651801269BFF35F8F002126
:101C1000116083F3108885E043461969EFF3108360
:101C200072B60A68002AFCD0BFF35F8F42469288E2
:101C300012B291460122524241468A800A69BFF39C
:101C40005F8F0021116083F310881AE09B465B468A
:101C500000229A5E002A0BDB53009B18DB005344E2
:101C60009868D96826002F00361A8F41002FEDDAC8
:101C70004B4659460B80634600215B5E994663469E
:101C80001A804B46002B53DB43465A6992464B461B
:101C90005B004B44DB009C46D44463469C68DD6893
:101CA00046460836B346D2E7002342469371414682
:101CB000083143460820185E11E001225242D31732
:101CC000A260E360434608229B5E834206D00D80FB
:101CD000434608229B5E2380434618812800431C0C
:101CE0002AD043465A6943001B18DB00D418D55E3E
:101CF00063881BB2002BE0DB2100EFE76B1C2AD1CD
:101D0000264800F0ADFA241A8D41002D34DC31D084
:101D1000224B019A5A63434608229B5E9946002B48
:101D200000DBE5E643469B881BB2002B00DB73E734
:101D300043469B79002BB7D1434608229A5E002A7E
:101D40001ADB4346596953009B18DB00CB189C688B
:101D5000DD68631CD2D011498A6AA01A009B043343
:101D60009B005B589B1A9842CAD2009B04339B008D
:101D70005C50C5E7002CCBD040BF03B0F0BCBB46E5
:101D8000B246A946A046F0BDB03E00203C700540DA
:101D90006CD4001040EE001098D4001000400540B4
:101DA000AD1A001070B504000D0011000126AE4000
:101DB00006622800FFF744FB01212800FFF714FB0F
:101DC000024B9C466444266070BDC046382000002B
:101DD000F8B5CE46474680B50600894690461F00B6
:101DE000C160FFF731FA154B9C46604480003061BA
:101DF00043463370BBB27381D022120612787270E0
:101E0000012252423281B2809B187380002406E086
:101E1000621E736965002D19ED005A530134BC42EE
:101E2000F6D3074B42469200D650064A41464846F2
:101E3000FFF7B8FFC0BCB946B046F8BD400000345B
:101E4000B03E0020AD1A001010B5064B1B69002BE8
:101E500001D0044810BD044B044A0548652102F036
:101E60007BFAC046D01D0020D8D4001028EE001008
:101E700098D40010F8B504000569EFF3108072B62D
:101E800029680029FCD0BFF35F8F0221665E656977
:101E900071008919C9006D18002E02DB0027E95F67
:101EA00061802169BFF35F8F00270F6080F3108886
:101EB000002E2CDB0699296107996961AA60EB6005
:101EC0006B8801335B04590C002B00D10121698020
:101ED0003000FFF7CFFD2169EFF3108372B60A6877
:101EE000002AFCD0BFF35F8FA2882A80A6802269D7
:101EF000BFF35F8F0021116083F31088E3682178BE
:101F000001228A4003498C4663441A60F8BD0120CF
:101F10004042FBE73C20000070B582B00600140090
:101F20001D0008AB1B78002B07D100F0CBF9220075
:101F30002B00121A8B41002B0ADB079B0193069B97
:101F4000009322002B003000FFF794FF02B070BD19
:101F50000020FBE7F0B5C64600B584B00500884612
:101F600016001F000AAB1C78FFF76EFF0294019762
:101F700000962A004346FFF7CFFF04B080BCB84666
:101F8000F0BD000030B5030008145A8990422EDAE3
:101F90005C6942001218D200A2181D69EFF3108488
:101FA00072B628680028FCD0BFF35F8F508880B2DB
:101FB0000904090C884212D000201A69BFF35F8F10
:101FC0000021116084F31088002811D0DA681B7892
:101FD00001319940074B9C466244116008E0064974
:101FE000014389B2518001229A710120E5E7002066
:101FF00030BDC0463C2000000080FFFF10B504004B
:10200000FFF722FF2100FFF7BDFF10BD40787047AA
:10201000F0B583B006000F00EFF30583002B1AD153
:1020200006246442E517A4197D418D4202D803D1EC
:10203000844201D90024002500F044F922002B003D
:10204000121A8B41002B0BDC08D03000390000F055
:102050004BF903B0F0BD1A48FFF766F8002AF4D038
:10206000184A0023009320002900FFF773FF00287F
:1020700018DAEAE7002300E00023002BE5D1124B39
:102080001968EFF3108372B60A68002AFCD0BFF318
:102090005F8F0D4A1268BFF35F8F0021116083F3D9
:1020A000108820BF094B5B6A9D42E5D80749896AC1
:1020B000A14203D29D42DDD00123DEE70123DCE70C
:1020C000FCD400107D1A0010D440002000400540D0
:1020D00070B504000D0000F0F5F800196941002901
:1020E00002DBFFF795FF70BD012040420049F8E791
:1020F000FFFFFF7F10B5FA2292000023002100F0BD
:1021000087FFFFF7E5FF10BD70B582B005000C003A
:10211000EFF30583002B12D03A4B5B6A8B4209D355
:10212000384A926A824208D28B4201D0012002E0F2
:10213000002000E0002002B070BD0120FBE7FFF7A7
:1021400083FEC16803788A6A2E00A81A04339B00B4
:102150005B589B1A984212D320BF2A4B5B6A9C4261
:1021600009D8284A926A954207D99C4201D0012099
:10217000E1E70020DFE70020DDE70120DBE7224A7E
:102180000023009328002100FFF7E4FE00280BDD68
:102190001C4B5B6A9C421BD81A4A926A954229D909
:1021A0009C4213D0012314E0164B5B6A9C4209D871
:1021B000144A926A954207D99C4201D00120BAE79D
:1021C0000020B8E70020B6E70120B4E7002300E0D4
:1021D0000023002B00D120BFFFF710FF094B5B6AE3
:1021E0009C420BD8074A926A964209D99C4203D076
:1021F0000120A0E70123ECE700209CE700209AE7FC
:10220000012098E7004005407D1A00100048704703
:102210000040054010B50B4B1B69002B04D00A4849
:102220000A21FFF7C9FB10BDFFF7F0FF04000321EF
:1022300000F00CF80348102303222100FFF7C8FD2B
:10224000EDE7C046D01D0020D440002010B5024A62
:102250000248FEF797FF10BD4CD50010403100201A
:102260000200436A906A1900536A9942FAD1704792
:10227000416A00E0416A9942FCD300E0416A994218
:1022800002D1816A9142F9D37047F0B5C64600B5D4
:10229000804614001D00FFF7E3FF06000F00220038
:1022A0002B0092197B41994202D804D1904202D965
:1022B00001225242D3174046FFF7DAFF80BCB846EE
:1022C000F0BD000010B50248FFF7CAFF10BDC046C0
:1022D0000040054010B502000B000248FFF7D5FF93
:1022E00010BDC0460040054010B502000B0002487A
:1022F000FFF7BEFF10BDC04600400540F8B5D6460A
:10230000474680B506000D00170098464400241883
:10231000A400294B9C4664446368089A934200D207
:102320006260331FDBB29A46012B2ED98022120144
:10233000C0239B01E3181A60204BB200D15800293A
:1023400007D0586900F0CEFA013043001B18033B58
:10235000FDD27F0123685F40E0233B408022520191
:10236000A21813605346012B1AD980239B01E3184E
:10237000802212011A60089B6360104BB60042462F
:10238000F250C0BCBA46B046F8BD012DCED10322F2
:10239000C0239B01E3181A60A368DB07FCD5D8E7CC
:1023A0002168694003230B401360A3680122AA40FF
:1023B0001A42FAD0D9E7C0460080004048310020D8
:1023C000F0B583B005000E0017001800089900F062
:1023D00089FA0300089A140200943A003100280098
:1023E000FFF78CFF03B0F0BD10B582B0802464000D
:1023F0000094FFF783FF02B010BD0000014B800086
:10240000C058704748310020F0B5C64600B50400FA
:102410000E0017001D00374800F064FA8046364B66
:10242000FA18364B9A4239D80100380000F05AFAAF
:102430000200103A98235B009A4235D86B1E062B97
:1024400038D8069B013B062B34D83F09474537D384
:102450002D04069B1B031D432368002B36DB284BF2
:102460009C4244D00C2201239340264A1360264A02
:102470001360264A1268190091430A1EF9D126609A
:10248000A060234BE31821321A602268002AFCDA8C
:10249000E56008221A6080BCB846F0BD1D4B1E4A9C
:1024A0001E48112101F058FF1D4B1B4A1B481921E2
:1024B00001F052FF1B4B184A18481C2101F04CFF39
:1024C000194B154A1548232101F046FF22683F2386
:1024D0001340B342C3D1A3681B051B0D8342BED179
:1024E000E368EE22D2021340AB42B8D1D3E70D220B
:1024F000B9E7C046001BB70080E84BD380F8A9328B
:1025000000C0024000E0004000F0004008C0004071
:102510000430000070D5001060EE0010C0D500102F
:1025200004D6001020D600106CD60010024B1A689A
:10253000024B5A607047C046A03E00200080054014
:1025400010B5184B8022D2051A60174B174A1A6033
:1025500000290AD0164BE022D2041A60002809D1C3
:10256000134B802212061A6010BD0E4BE022D204DB
:102570001A60F3E743011B1A9B001A18D2000D4999
:102580000A6018180001086080235B04984201D398
:10259000094A0A60FFF7CAFF054B8022D2051A607C
:1025A000E2E7C04600B0054008200140FCFF010002
:1025B00000A00540A03E0020FFFFFF0010B5030073
:1025C00010000C4A8024E4051460002B0DD0012279
:1025D0001343094A094CD461094C5C4014625162AE
:1025E00093620021FFF7ACFF10BD034B0022DA61BC
:1025F000F7E7C04600B0054000800540D3C007B0F3
:102600002D3FF84F80239B000B43014AD362704754
:102610000080054010B5010018231B881422108883
:10262000984710BD10B5010018231B88162210888A
:10263000984710BDF0B5C64600B507000E0000254E
:102640000123984600E00135B5420AD2AC003C199E
:102650002068FFF7DFFF20600028F4D100239846B0
:10266000F1E7404680BCB846F0BD000070B50400FC
:102670000D000648FFF7CEFF0300002C03DB01200E
:10268000A040290098470020FBE7C04655420000C3
:10269000064BAA2212011A602F22DA60044B054A67
:1026A0001A60024B5B68002BFBDA70470040024067
:1026B0000060024000B0FA0010B5040001E008CC50
:1026C0009847024B9C42FAD310BDC046ECCE001096
:1026D0007047000010B50248FFF7EEFF10BDC0467E
:1026E000B0CE0010054B064A1A60064B064A1A6027
:1026F000064B1A68044B9343FAD1704700E0004040
:10270000BFCDFBFE00F00040FE7F3C0008C0004053
:10271000044BDB6C002B03D1034B8022D2021A60E6
:102720007047C046000011504C201150044B054A20
:102730001A60054B1B68DB43DB01FAD17047C046CA
:1027400000F00040FFFFFF0108C00040034B4022A3
:102750009A675A671A67DA667047C04600F0014008
:1027600010B5FEF791FD10BD70B5044DA968044C7D
:10277000C022200000F0DCFCAC6070BD00ED00E089
:102780000000002070B50420FFF738FE064900F075
:10279000A9F805000024002C00DD70BDE0B229007E
:1027A000FFF730FF0134F6E740420F0030B583B049
:1027B000274B00229A67FFF76BFF264B01221A6016
:1027C000234B5B6C012BFBD1234B03221A60204B64
:1027D0009B6B012BFBD10133009304331F4A012172
:1027E0001F48FFF711FE052300931E4A01211E48D2
:1027F000FFF70AFE1D4B002202210420FFF7F4FD23
:102800001B4D2B00002201210520FFF7EDFD194C87
:102810002300002200210720FFF7E6FD230000220D
:1028200000210820FFF7E0FD8023DB000093230058
:10283000002200210920FFF7C3FD2B000022002108
:102840000620FFF7D1FDFFF79DFF03B030BDC04666
:10285000008000403CB0004030B00040002F68597C
:1028600000800240008C864700C00240001BB70079
:1028700040597307006CDC0201480421014B1847E2
:10288000F01D002035260010014B9B681847000002
:10289000F01D0020124A936F9B0815D29066D166F6
:1028A000002905D0FFE7FFE7FFE7516F106F704782
:1028B00004B580210906C2175140002800D0C84342
:1028C0000AF05EFA002104BDF0B5146E556E576F24
:1028D000166FFFF7E3FF1466556657671667F0BD7E
:1028E000000000D0114A936F9B0813D21066516606
:1028F000002905D0FFE7FFE7FFE7516F106F704732
:1029000004B5002801D00020C0430AF039FA0021A4
:1029100004BDC046F0B5146E556E576F166FFFF7C5
:10292000E5FF1466556657671667F0BD000000D0D6
:1029300094464A4A926F9208624601D228E0C04605
:10294000F0B5464E346E756E776F366F00F020F836
:102950009446424A14665566576716676246F0BD4C
:1029600094463E4A926F9208624601D254E0C046B5
:10297000F0B53A4E346E756E776F366F00F04CF8E6
:102980009446364A14665566576716676246F0BD28
:10299000002B24DB11D000293EDA00B5C9434042A8
:1029A00000D1013100F038F8C943404200D1013173
:1029B000DB43524200D1013300BD002AEBD1002895
:1029C00001D1002905D00020C90FC90701D1C0439A
:1029D000410800B50AF09CF90022002300BD00B5B3
:1029E00000290ADBDB43524200D1013300F014F826
:1029F000C943404200D1013100BDC943404200D12A
:102A00000131DB43524200D1013300F005F8DB43D2
:102A1000524200D1013300BD002923D1002B18D12F
:102A2000002A0CD0BC460D4F38667A660021002380
:102A3000FFE7FFE7FFE77A6F386F674670470028C8
:102A400001D00748010000B50AF062F90022002316
:102A500000BD02000B00002000217047000000D0E4
:102A6000FFFFFFFF002B00D0BFE0130C28D1002A8E
:102A7000E7D080B4114F39667A66FFE7FFE730B4DC
:102A8000040C7B6F396F1B0423433B667A66FFE7B8
:102A9000FFE7FFE7C04684B27B6F3D6F1B04234313
:102AA0003B667A66FFE7FFE7C04600232C042D0C47
:102AB0007A6F386F00196941B0BC7047000000D0D0
:102AC000F0B594460025140E01D112020835140FFA
:102AD00001D112010435940F01D192000235D40FB7
:102AE00001D152000135D40B0134254F7C66254CB1
:102AF0003C660E0C93B2FFE7FFE7FFE73C6F6643CF
:102B0000360C7703BE467343DF0B5B04C01AB94132
:102B1000130C7343DB18C91ACE086643360CB6444F
:102B200093B273431F0F1B01C01AB941130C7343B7
:102B30001F0B1B05C01AB941860D8F023E43664329
:102B4000360C092D24DB520A7243801A7703460A99
:102B50006643360C16235B1BDE40DF40BF1964461C
:102B60006643821B7046043506330100D940A840F5
:102B7000C01900D30131A24206D20023F0BD0000EB
:102B8000000000D0FFFFFFFF121B0130F3D3F1E77D
:102B900009277F1BFE406446A2B27243801A00D20E
:102BA0000139220C7243130C1204821A99410B0052
:102BB0007046043513370100F940A840801900D34E
:102BC0000131002B02D1A2420AD2F0BD013000D364
:102BD0000131121BFAD2013BF8D1A24200D2F0BD62
:102BE000013000D30131121BF7E7F0B51C0C00D007
:102BF00080E00CB400251C0A04D11B02160E3343DE
:102C0000120208351C0B04D11B01160F33431201AD
:102C100004359C0B04D19B00960F33439200023580
:102C2000DC0B02D192185B4101351C0097186441FE
:102C30000134464F7C66464C3C660E0CFFE7FFE7CE
:102C4000FFE7C0463C6F6643360C7703BE4697B23B
:102C50007743C01B00D20139C01B00D201399FB29B
:102C60007743C91BC91B170C77437E04FF0B801BDE
:102C7000B941CE086643360C0C2D33DBB644120B3B
:102C80001F053A431B0B97B27743C01B00D2013993
:102C90009FB27743C91B170C77433E043F0C801B40
:102CA000B941860D8F023E43664329277F1BFE40B4
:102CB0000C3D7746AF40BF1930BCA2B2ABB27243F5
:102CC0007343801A9941220C7243130C1204801A28
:102CD000994102000B000137001BA941F9D2781E6F
:102CE0000021F0BD0C277F1BFE4077467F0BAF40D5
:102CF000FF19E0E700245D1C07D0144F7D6639669C
:102D0000FFE7FFE7FFE7FFE73C6F95B29EB2654341
:102D10006643401BB141150C1E0C654366433604E7
:102D20002F0C3E432D04401BB141994204D20200B6
:102D30000B0020000021F0BD01D19042F7D3801A92
:102D4000994101349942F2D3F6E70000000000D027
:102D5000FFFFFFFF48404140484018B4134B5B68F9
:102D6000019308BD18B4114B1B68019308BD94462C
:102D70000F4A926F920805D2624618B40B4BDB687B
:102D8000019308BD0A4AF0B5146E556E576F166F61
:102D90006246FFF7F2FF064A1466556657671667E4
:102DA000F0BD18B4014B9B68019308BDD03E0020D4
:102DB000000000D0FFB550404240504059404B40C9
:102DC000594000E0FFB5154F4C00640D03D0BC42E4
:102DD00004D10C0314D80020090D09055C00640D12
:102DE00003D0BC4204D11C030AD800221B0D1B05D2
:102DF00001264B4009D44B4003D58B4200D182427F
:102E0000FFBD9942FCD19042FFBD0B43DB18034349
:102E10001343F5D0C9434918FFBD0000FF07000068
:102E200000B5FFF7CFFF804100BDC04600B5FFF7FA
:102E3000C9FF01D9002000BD012000BD00B5FFF78A
:102E4000B9FF01D9002000BD012000BD00B5FFF78A
:102E5000B1FF804100BD012040054A00121804D88E
:102E60005A00121801D80020704701207047000056
:102E70000021002805D17047C1174840401AFAD0F8
:102E8000C90713B5064B1B6898470CBC441CA240ED
:102E90001005120B0349091B09051943114310BD05
:102EA000D03F00201F04000010B54C00620D8023AD
:102EB000D218DB00D21A5B057E2A10DD9E3A13DAA7
:102EC000CC170903490819435242D1406400013428
:102ED0001532202A05DAD0400843604310BD002097
:102EE00010BD0846604310BDC80FC018013810BDA2
:102EF00018B4024B5B6A019308BD0000D03E00206D
:102F000010B50148FEF710F988D6001070B51323EC
:102F10001C78012C12D0012C12DC214B214A936425
:102F20002148FFF777FB214B186070BD20491D4AEF
:102F30009800815001331F2BF8D9ECE70023FAE702
:102F40001C48FFF76FFB05001B48FFF76BFB0238BF
:102F500003789B007F2B09DD12488022290000F0B6
:102F6000E7F8022C08D0022CDADCD6E7134B144A1F
:102F70001448332101F0F0F9134B1A88B5231B02D2
:102F80009A4209D1114B1A88114B9A4204D1114B24
:102F90001A88114B9A42E6D00020FEF7C5F8C046C9
:102FA000DD2F0010D03E00204C330000D03F002029
:102FB000012F00105344000053460000A0D600101B
:102FC0006CEE0010E4D6001054380000D838000031
:102FD000494600009C3800005946000007B560468D
:102FE000002800D100BE01880A0A0230DF2AFAD187
:102FF000C9B2820804D3028840880004104300E06C
:103000000068024A5050039007BD0000D03E0020E7
:1030100051434343C9188C46110C83B24B4310B43F
:10302000040C614392B280B2504362431C041B0CF7
:10303000001910BC59411304120CC01851416144CD
:103040007047000010B50148FEF76EF824E3001049
:1030500070B513231E781848FFF7E4FA0500012E17
:1030600011D0012E09DDAB1E1B789B007F2B1DDDCF
:1030700012488022290000F05BF81148FFF7CAFAD5
:10308000104B186070BD0D485422290000F050F814
:10309000002300E001331F2BE3D8084A9C00A2580C
:1030A000002AF7D10849054AA150F3E7074B084A1F
:1030B0000848422101F050F953460000D43F002057
:1030C0004C330000D03F0020453000103CD70010AA
:1030D00080EE001070D7001010B5002804D0401802
:1030E000034B984200D810BD0248FEF71DF8C046B9
:1030F00000000420C4D7001070B5050009F06EFB75
:1031000004002900FFF7E8FF200070BD10B509F0AA
:103110006FFB10BD01480421014B1847001E002021
:1031200035260010014B1B6818470000001E0020C8
:10313000014B5B6818470000001E002010B5FFF728
:10314000DBFF10BD10B5FFF7E1FF10BD10B5FFF7B5
:10315000DDFF10BD704710B5002802D00B6849682C
:10316000984710BD0100002007E083001B185B009A
:10317000501C08601078C01830380A681378303B4B
:10318000DBB2092BF1D97047F0B5DE4657464E4603
:103190004546E0B583B093461F000C9B9A460D9CB4
:1031A0000E9B99460F9B9B0703D0B8460F00060065
:1031B00022E00192A34688464E46B9460700B44233
:1031C00007D2551C4B4641462020B84701342A00FF
:1031D000F5E73D004F465C46019B9B46B14646469F
:1031E000B84637002E0007E0013C551C5346185DD9
:1031F00043463900B0472A00002CF5D135003E0087
:1032000047460F9B9B0707D4100003B0F0BCBB469A
:10321000B246A946A046F0BDB0464E46B9462F007C
:103220005D46531BB342EFD2541C4B46414620200F
:10323000B8472200F5E7F0B5CE46474680B585B0E1
:10324000944698460C9D0D9C0EAB1B789946109A9F
:10325000119B129EB7071CD4002B0CD0F7070AD580
:103260004F46002F02D10C37374204D0013B02E019
:1032700030272F550134944201D21F2CF8D9F7077B
:1032800007D59C4205D21F2C03D830272F55013477
:10329000F5E7F70612D5770505D4002C03D0944244
:1032A00021D09C421FD00F9A102A32D00F9A022AA6
:1032B00037D01F2C0AD830222A5501341F2C05D8AC
:1032C0004A46002A33D02D222A5501340396029310
:1032D0000194009543466246FFF756FF05B0C0BC17
:1032E000B946B046F0BD621E012C10D00F9F102FC2
:1032F0000BD014000F9A102AD8D1B206D6D51F2CA5
:10330000D4D858222A550134D3E7023CCBE7140025
:10331000C9E7B206EED41F2CECD878222A55013426
:10332000C7E71F2CD2D860322A550134C1E7720793
:1033300003D52B222A550134C8E73207C6D52022EF
:103340002A550134C2E7F0B5DE4657464E4645469B
:10335000E0B593B081468A46089209931CAB10CB26
:103360001B789B461E9D219B9846002C03D1102361
:1033700042469A4390468023DB0046461E40424622
:103380001A4212D0002C22D000260EE03033D9B2DF
:10339000771C0AAB995529002000FFF7A3FAAC422D
:1033A00016D31F2F14D83E00040029002000FFF779
:1033B00099FACBB2092BE9D94246920605D54121AB
:1033C000C918C9B20A39C9B2E2E76121F8E7270092
:1033D00043460693209B05931F9B049303955B46EE
:1033E000029301970AAB0093099B089A51464846FD
:1033F000FFF721FF13B0F0BCBB46B246A946A0467A
:10340000F0BDF0B5DE4657464E464546E0B597B0AE
:103410000A900B910C929A46209B9946219F22AAD2
:1034200013789B46249B0993259C289B98464A46E3
:103430003A4302D11032934398468022D200454647
:103440001540434613420AD04A463A4341D000252C
:103450002E0053460D934D46099B9A461BE02E00C5
:1034600053460D934D46099B9A4614E03033DAB229
:10347000731C99460EAB9A5552462300280039001A
:10348000FFF76EFABC4226D819D04B461F2B1CD82A
:103490004E4605000F005246230028003900FFF772
:1034A0005FFAD3B2092BE1D94246920605D54122F3
:1034B000D218D2B20A3AD2B2DAE76122F8E7AA45C4
:1034C000E3D94E460D9B9A4608E04E460D9B9A4620
:1034D00004E0002602E04E460D9B9A4643460693C2
:1034E000279B0593269B0493099B03935B460293BA
:1034F00001960EAB009353460C9A0B990A98FFF76E
:103500009AFE17B0F0BCBB46B246A946A046F0BD35
:10351000F0B5DE4657464E464546E0B591B080468A
:1035200089460C929A461A9C1B9D22002B00200073
:103530002900FFF790FC002800D0ECE00122524265
:10354000D44B20002900FFF781FC002800D0E2E0E6
:1035500001225242D04B20002900FFF761FC0028D5
:1035600000D0D8E00022002320002900FFF758FCFB
:10357000002800D0E4E0069407958023DB001E9A23
:103580001A400D921E9A1A4201D106231C930698E6
:10359000079902000B000892099303000A000243F6
:1035A00000D1D9E0080D4005400DBC4EB446604442
:1035B0000A03120B1E00BA4B13431F00FFF75CFCFB
:1035C000B84AB94BFFF7EDFBB84AB94BFFF7CAFB56
:1035D000089009910022B74B30003900FFF7BDFB7E
:1035E000B54AB64BFFF7DDFB02000B0008980999BE
:1035F000FFF7B8FBFFF758FC8346FFF73DFC0600DA
:103600000F00AF4AAF4BFFF7CCFB0022AE4BFFF7EA
:10361000A9FBFFF749FC0890AC4AAD4B30003900DC
:10362000FFF7BFFB06000F000898FFF725FCA94A2B
:10363000A94BFFF7B6FB02000B0030003900FFF783
:103640008CFB06000F0002000B00FFF7AAFB0A909C
:103650000B91089BA14A94466344002100220891E3
:1036600009921B0509930023089332003B003000A8
:103670003900FFF777FB0E900F9132003B000020DE
:103680008021C905FFF769FB06000F000022944B5B
:103690000A980B99FFF76BFB0022924BFFF762FB36
:1036A00002000B000A980B99FFF761FB00228E4B7A
:1036B000FFF758FB02000B000A980B99FFF757FB26
:1036C00002000B0030003900FFF74CFB02000B003A
:1036D0000E980F99FFF74BFB0022714BFFF742FB4F
:1036E000089A099BFFF75DFB06000F0008960997F3
:1036F000069A079BFFF7AAFB00282FD001235B4205
:103700009C46E3440022774B30003900FFF72FFB43
:103710000890099122E01E9B04931D9B03931C9B20
:1037200002930094019553460C9A4946404600F096
:10373000FFF811B0F0BCBB46B246A946A046F0BDAA
:103740000021002206910792069480231B069C46C6
:10375000AC446346079310E700239B465B46633304
:10376000C62B20D804261E9B1B0528D5089A099B2A
:10377000190011430FD05D4A5D4B06980799FFF77A
:103780005DFB00287AD000225A4B06980799FFF774
:1037900047FB002872D01C9B5B4506DD5A469B1AEE
:1037A000013B1C9303E00526DDE700231C938023E7
:1037B000DB001E9A1A431E92002600239B461D9B87
:1037C0009E4265D29F1B02231E9A1A400A921E9A9D
:1037D000134202D0002E00D000275B46002B07D0FA
:1037E000089A099B06980799FFF7C1FA0690079176
:1037F0000022002320002900FFF712FB002800D040
:103800007CE03D4B1E9A1340049303971C9B02934C
:10381000069B079C0093019453460C9A49464046E8
:1038200000F086F8002E00D183E71E9B9B0671D521
:103830004525441C5346020049462800C0475A46C5
:10384000D317D2185A4005230593013E049600234E
:1038500003930A3302935B46DB0F019300925346B6
:10386000220049464046FFF76EFD0A9B002B00D11F
:103870005FE7020047460C9E1D9D53E01C9B002BFA
:103880009DD00D9B002B9AD01C9B013B1C9396E76F
:10389000002798E7FFFFEF7FFFFFEFFF01FCFFFF2F
:1038A0000000F03FFB799F501344D33FB3C8608BB7
:1038B000288AC63F0000F83F61436F63A787D23F65
:1038C00071A379094F930A400000E03F1655B5BB3C
:1038D000B16B0240EF39FAFE422EE63FFF030000D3
:1038E00000002C4000002440000018402D431CEB39
:1038F000E2361A3F80842E41FFF7FFFF069C079DAA
:103900002200290080200006844661440B000692B4
:10391000079376E765258CE7541C534649462020DB
:10392000B8472200931BAB42F6D3100001E7C04614
:10393000F0B5DE4657464E464546E0B595B0069092
:10394000079193469946209F1E9A1F9B10001900CD
:10395000FFF781FA002831D101225242BF4B1E9855
:103960001F99FFF75DFA002837D101225242BC4B64
:103970001E981F99FFF76AFA00283DD10022B94B23
:103980001E981F99FFF762FA002850D10022B64B0B
:103990001E981F99FFF744FA002848D100220023FF
:1039A0001E981F99FFF73CFA002850D10023984633
:1039B000229B5B0500D4B6E0002458E0229B0393D1
:1039C000219B029303230193A84B00934B465A4635
:1039D00007990698FFF7D8FB0EE1229B0393219BE2
:1039E000029304230193A24B00934B465A46079936
:1039F0000698FFF7C9FBFFE00423229A1A40229998
:103A00000B4210D09B4B002A0FD004222299039125
:103A100021990291019200934B465A4607990698C4
:103A2000FFF7B2FBE8E0944BEDE70322EEE7229BC1
:103A30000493219B039302971E9B1F9C0093019468
:103A40004B465A4607990698FFF762FDD4E01E9A46
:103A50001F9B00200021FFF780F91E901F9101237A
:103A60009846A5E70CAB30221A55013F01341F2CB4
:103A700001D8092FF6D81E981F99FFF715FA0500EF
:103A8000FFF7FAF902000B001E981F99FFF765F97E
:103A90007A4BFA009B181A685B680A920B93FFF73F
:103AA00080F908900991FFF723FA0600FFF7E0F983
:103AB00002000B0008980999FFF74FF90890099147
:103AC00000226F4BFFF7C2F900282ED001363000DC
:103AD000FFF7CEF902000B000A980B99FFF7A6F941
:103AE000002801D001350026002F2CD12800FFF737
:103AF000C3F902000B001E981F99FFF72EF906006C
:103B00000F0000225E4BFFF78BF9002846D1002200
:103B10005B4B30003900FFF799F900283ED1EB07E5
:103B20003CD501353AE0062746E70022544B089879
:103B30000999FFF775F90028D6D1002E01D0F307B7
:103B4000D2D50136D0E7AA461F2C11D8013F0A2151
:103B50003000FEF7C7FE651C30310CAB19550A2149
:103B60003000FEF7BFFE092E0ED906002C00EBE751
:103B700055461F2C0CD87B1E002F09D00CAA3021D3
:103B800011551F000134F4E72B0055461C00F0E7E7
:103B90001F2C03D80CAB2E221A5501341F2C10D821
:103BA0000A212800FEF776FE661C30310CAB195551
:103BB0000A212800FEF76EFE051E01D03400EDE755
:103BC00034000323229A1340012B1CD01F2C06D84B
:103BD0004346002B32D00CAB2D221A550134229BC8
:103BE0000393219B029301940CAB00934B465A46DE
:103BF00007990698FFF7C8FA15B0F0BCBB46B24665
:103C0000A946A046F0BD219B002B13D04346002BB4
:103C100002D10C3313420FD0219B013B2193190099
:103C200003E00CAB30221A5501348C42CED21F2C4B
:103C3000F7D9CBE72199F8E72199F6E7229B5B07B3
:103C400004D50CAB2B221A550134C8E7229B1B0765
:103C5000C5D50CAB20221A550134C0E7FFFFEFFF9A
:103C6000FFFFEF7F65CDCD4165CDCDC120D80010E0
:103C700024D8001014D800101CD8001088F00010B0
:103C80000000E03FF0B5DE4657464E464546E0B5FB
:103C900093B08246884693461193002900D10DE3E4
:103CA00000255646119B1878002800D109E32528E5
:103CB00009D06C1C5B462A004146B047119B01337A
:103CC00011932500EEE701331193002720E0012333
:103CD0001F4301321192012418E002231F430132D5
:103CE0001192012412E004231F4301321192012496
:103CF0000CE008231F4301321192012406E0102337
:103D00001F4301321192012400E00024002C09D04D
:103D1000119A1378203BD9B21029F6D88B00C849E4
:103D2000CB589F46119B1A781300303BDBB2092B0E
:103D300010D92A2A13D00B94119B1A782E2A1ED040
:103D4000119A1378683BD9B2122959D88B00BD4912
:103D5000CB589F4611A8FFF705FA0B90ECE71C9B88
:103D60001A1D1C921B68002B04DB0B93119B013363
:103D70001193E1E7022217435B420B93F6E780229F
:103D8000D20017435A1C11925A781300303BDBB211
:103D9000092B0BD92A2AD3D11C9B1A1D1C921C68F3
:103DA000002C08DB119B01331193C9E711A8FFF721
:103DB000D9F90400C4E70024F4E780235B003B4307
:103DC000511C119151786C2901D01F0018E0C023BB
:103DD0009B001F430232119212E080233B43511C8F
:103DE00011915178682901D01F0009E0C0231F43B9
:103DF0000232119204E080235B001F4301321192D2
:103E0000119B1878672818D8252800D24CE20300A7
:103E1000253BDAB2422A00D946E293008A4AD358B7
:103E20009F4680239B001F4301321192E8E78023C5
:103E30005B001F4301321192E2E7782800D933E298
:103E4000692800D230E20200693AD2B201239340DD
:103E50007E4A134211D11A0600D500E25B0500D458
:103E600022E21C9B1A1D1C921B689A46002C00D053
:103E7000B2E10122524253468EE16F280ED006D89D
:103E800058283DD0622804D102239C4608E07828B7
:103E900039D010239F43063B9C4601E008239C46F3
:103EA000582833D0692803D0642801D00C229743C6
:103EB0007A0501D50122974369282AD0642828D0A1
:103EC000BA0500D59FE0FA0500D5C1E07A0600D416
:103ED000D3E01C9A111D1C911168FF220A4005971E
:103EE0000B9B049303946346029300230193009277
:103EF0005B462A0041463000FFF725FA050027E01F
:103F000010239C46CCE710239C46C9E72022174388
:103F1000C8E7BA0520D4FA0550D47A0666D51C9AAB
:103F2000111D1C911168FF220A40D0171118414041
:103F300005970B9B0493039463460293D20F01925F
:103F400000915B462A0041463000FFF7FCF905006E
:103F5000119B01331193A5E61C9A073207218A436E
:103F6000110008311C91116853689946DB170C93B6
:103F70000D930C9A0D9B100048400E904A465340FA
:103F80000F930E980F990C9A0D9B801A99410E90E1
:103F90000F9108970B9B07930694634604930023A5
:103FA00005934B46DA0F0292009001915B462A007E
:103FB00041463000FFF725FA0500C9E71C9A111D9C
:103FC0001C911268D0171118414005970B9B049360
:103FD000039463460293D20F019200915B462A003C
:103FE00041463000FFF7AFF90500B1E73A0605D5C5
:103FF0001C9A111D1C910023D25E96E71C9A111D7C
:104000001C91126891E71C9A073207218A4311001C
:1040100008311C9108970B9B079306946346049301
:1040200000230593029353681268009201935B4644
:104030002A0041463000FFF7E4F9050088E7C04652
:10404000E8EE00102CEF001078EF00104190000017
:104050001C9A111D1C9105970B9B049303946346B6
:10406000029300230193136800935B462A004146A4
:104070003000FFF768F905006AE73A0606D51C9A92
:10408000111D1C9112681204120C28E71C9A111DB4
:104090001C91126823E7462819D01C9B073307227E
:1040A00093431A0008321C9204970B9A03920294CD
:1040B0001A685B68009201935B462A004146300013
:1040C000FFF736FC0500119B01331193EAE520232D
:1040D0001F43E2E7672801D0472802D180231B0154
:1040E0001F43452801D0472801D120231F431C9B93
:1040F0000733072293431A0008321C9204970B9A45
:10410000039202941A685B68009201935B462A004E
:1041100041463000FFF7FCF90500119B0133119374
:10412000C0E502231A003A4091463B421DD00124CB
:104130001C9B1A1D1C926F1C18785B462A00414676
:10414000B0474B46002B14D1119B013311933D0016
:10415000A8E5571C5B4641462020B04723003A00A3
:104160005C1C9D42F5D81500E2E701232A000B9D57
:10417000F6E73A00B1460B9E06E0571C5B46414607
:104180002020C8472C003A00651CA642F5D817002D
:104190004E46D9E701330A001978002902D0511E92
:1041A000002AF7D152469B1A8022D20039001140D2
:1041B0008946174202D0A34200D9230002221100EF
:1041C000394010913A4209D02A00250057469A46B4
:1041D00033004E46994621E022004CE62A0045462F
:1041E000A04606E0541C5B4629002020B0473B0057
:1041F00022005F1C0B999942F4D84446A8463B0024
:10420000250057469A4633004E46994606E01D0063
:104210000137541C5B464146C847220038780028C5
:1042200004D0002EF4D06B1E002DF0D115005346A3
:104230004E46109A002A03D1119B0133119331E5A8
:104240000B9F2A0006E0551C5B4641462020B047E4
:1042500023002A005C1C9F42F5D81500ECE72123BF
:104260003B431C9A111D1C9112680593082304936B
:104270000394083302930023019300925B462A00C3
:1042800041463000FFF75FF80500119B01331193A1
:1042900008E56C1C5B462A0041462520B047119B6F
:1042A000013311932500FDE46C1C5B462A00414656
:1042B000B047119B013311932500F3E40A4B9A4652
:1042C000EEE4B2465D450DD35B465A1E5B46414661
:1042D0000020D047280013B0F0BCBB46B246A94628
:1042E000A046F0BD2A00F1E75531001000B585B0B9
:1042F0000290039101210448009313004A4202A94D
:10430000FFF7C0FC05B000BD5731001000BEFDE74F
:1043100003000A4A1268002A08D0084A1068C31825
:10432000074A9A4206D3054A13607047034A054973
:104330001160F2E701204042F7E7C0469C3A0020B6
:10434000000004200042002000207047012040426D
:10435000704710B5FFF7DAFF30B583B00D001900D4
:10436000002A0BD0074B084C019200932B0002004F
:10437000200000F0C7F90120FFF7C8FF034B1A0027
:10438000F1E7C0462CD800103CD8001024E3001000
:1043900010B5EFF30583002B00D000BEFEF79AF9AD
:1043A000034C01E008CC9847024B9C42FAD310BD65
:1043B000ECCE0010FCCE001010B503000800110078
:1043C0001B68984710BD0000F8B507000D001600E7
:1043D000437D002B02D0002400200CE00368110074
:1043E000280098472DE03B7D10E03B6815480221EE
:1043F0009847601C0134B44214DA002CF3DD2B1909
:10440000013B1B780D3B5A425341DBB22A5D0A2A1D
:10441000F0D1002BEED1A042E7DA3B68211A281830
:104420009847E2E7B04203DA3B68311A2818984708
:10443000002E06DDAD19013D2B780D3B5A4253414C
:104440003B75F8BDE8F0001070B505000368002B5F
:1044500016D00C4B1C6805E0290004C92000FFF7AA
:10446000B3FF2469002C09D02368002BF9D0064B38
:104470001B68002BF0D0A342F3D1EDE700232B60A3
:1044800070BDC046903A0020983A002070B50500F3
:104490000C000B68802B05D023685A1C2260E4189E
:1044A000257170BD0800FFF7CFFFF5E710B5FDF7E8
:1044B00009FF074A002312184B41002B03DB054874
:1044C00008F096FC10BD01225242034BF7E7C046AC
:1044D00040420F00B4230020FFFFFF7F10B50248C9
:1044E00008F00EFC10BDC046B4230020F0B5CE4647
:1044F000474680B583B006000D0090461C00FFF7CC
:10450000D5FF81466B1C05D0002C08D0184F194BE5
:104510001C6807E0300008F0DDF90500F4E7164FED
:10452000F5E72469002C17D02368002BF9D0134B32
:104530001B68002B01D0A342F3D12A0031002000D8
:10454000B8474346002BECD06B46D91D0A230B70AD
:1045500001222000B847E4E74B46002B05D1280094
:1045600003B0C0BCB946B046F0BDFFF7B7FFF6E7F1
:10457000C9430010903A0020B9430010983A002037
:10458000F0B583B006000F0001920093164B1C6833
:1045900008E0A368002B04D03900300098470028B9
:1045A00020DC2469002C06D0104B1D68002DF0D0B3
:1045B000A542F6D1EDE700990A000D4B5B6A9942DE
:1045C00009D80B49896A0198814209D29A4202D0DE
:1045D0000220404206E001200021FDF77BFED5E7E6
:1045E0000220404203B0F0BD903A0020983A0020EB
:1045F00000400540094A01E010331A001368002BFF
:1046000008D08342F8D1002907D103691360002341
:10461000036102E0002900D010607047903A00204A
:1046200010B5064B1C6801E098472469002C03D0A4
:104630006368002BF8D1F8E710BDC046903A00201F
:1046400010B500F0F7F910BD00B583B00A4B1A6839
:104650005B68012101A8FFF793FF002803DB012815
:1046600003D101AB187803B000BD044B044A952177
:1046700004484900FFF770FE58EE0010B4D800104F
:10468000D8F0001070D8001010B582B004006B464E
:10469000D81D0470012300220121FFF727FF20000D
:1046A00002B010BD70B5050008F014F90400012334
:1046B000012201002800FFF719FFFFF7B1FF2000DA
:1046C00070BD000070B5A2B004000E00FFF7EEFE52
:1046D0000500002301930A483300220001A9FFF7D7
:1046E00005FE040001A8FFF7AFFEFFF799FF002DBC
:1046F00002D1200022B070BDFFF7F0FEF9E7C046FE
:104700008D4400100FB400B583B004A901C9019114
:10471000FFF7D8FF03B008BC04B01847704700008B
:10472000014B00221A707047FB4100204B79FF2B90
:104730000CD18B79002B0BD1CB79012B0AD1082A14
:104740000AD98A78054B1A70092000E000207047CA
:104750000020FCE70020FAE70020F8E7FB410020FA
:104760000120704710B5012928D1117953791B0216
:104770000B43134909788B4201D000201FE0537886
:10478000012B03D0022B12D0002018E09178D378AF
:104790001B021943DB0507D5480A4A0A01231A40C0
:1047A0007E331940FDF762FF01204042F5E76422A5
:1047B00000210020FDF702FF012000E0012010BDD4
:1047C000FB41002000487047B4F1001010B5140000
:1047D000012910D15378012B0FD1127963791B0273
:1047E0001343072B01D0002006E0054A9F33210028
:1047F00001F04EFB00E0012010BD0020FCE7C046A8
:104800000CF100100123037000487047ECF0001019
:1048100010B50A784B781B0213438A7812041A43A6
:10482000CB781B0613439622D200934200D010BDD2
:104830000120002211004042FDF718FF024B1860D2
:10484000024B19607047C0463431002038310020D7
:1048500010B5FDF737FD0E4A002312184B41002B0F
:1048600012DB0C4808F0C4FA00280CD0012000210B
:10487000404201F0D7F9002001F062FC0028F5D198
:10488000044808F03DFA10BD01225242024BE8E70D
:1048900040420F00D8400020FFFFFF7F10B5024BC1
:1048A0001878FCF7ABFD10BDFC4100200268EFF367
:1048B000108172B61368002BFCD0BFF35F8F41608C
:1048C0007047000070B5144B1B68002B1AD0124CB7
:1048D0002000FFF7EBFF114B00221A70216863687C
:1048E000BFF35F8F0A6083F31088002400250C4B10
:1048F0001878FCF75FFD002808D10024002520006F
:10490000290070BDFA24A4000025F0E7044B1878B4
:10491000FCF774FDF3E7C046A83E0020FD410020EF
:10492000FC410020F0B585B0060014001D000CAB62
:104930001F78FDF7C7FC22002B0012184B41002BFB
:1049400009DB02970B9901910A9900913000FDF75C
:10495000E3FA05B0F0BD01225242014BF1E7C04637
:10496000FFFFFF7FF0B5C64600B584B0050088465E
:1049700016001F000AAB1C78FDF766FA0294019737
:1049800000962A004346FFF7CDFF04B080BCB8462E
:10499000F0BD000010B582B02048002108F008FAF0
:1049A00000281AD11E4B1B68002B14D01C4C200071
:1049B000FFF77CFF1B4A137801214B40DBB201213A
:1049C000117021686268BFF35F8F0020086082F376
:1049D0001088002B17D102B010BD012000214042E9
:1049E00001F020F9002001F083FB04000B4808F0DF
:1049F00087F9002CEFD00C4B1B68002BEBD00B4A37
:104A000010689847E7E70A4A012300930023FA2039
:104A100080000021FFF7A6FFDDE7C046D840002058
:104A2000A83E0020FD410020343100203831002014
:104A3000C548001010B582B0D0231B061C68FDF7D6
:104A400003FAFDF7E3FAA0422ED1264B1B7802F0C1
:104A50004BF8254B1B68002B2CD00120FCF786FF60
:104A6000224C20702249FF231840FCF7E9FC2078F3
:104A70000121FCF7B9FC0520FCF7D0FC041E1DD079
:104A80000120FCF7EFFB01001A4B1800FCF7DEFFDA
:104A9000194900220520FCF7FDFC18480121FFF709
:104AA000A9FD200002B010BD154B164A1648C121C1
:104AB000FFF752FC0C48FCF787FFCEE70D480822B1
:104AC0000021FEF72FFB114A012300930023FA2057
:104AD00080000021FFF746FFC043C40F0028E0DA42
:104AE000DBE7C0461C740410D8400020FC410020C5
:104AF00095490010A83E00209D480010101E00207F
:104B000058D30010E4F10010C0D80010C5480010C0
:104B100010B5002001F0D0FA10BD000070B50500FE
:104B20000C00FFF7F5FF002834D0002001F0E0FA78
:104B3000002832D0FDF7C6FB1B4A002312184B4158
:104B4000002B19DB194808F053F9002828D0FFF78B
:104B5000DFFF002804D0002001F0CAFA00280FD19E
:104B600001200021404201F05DF8032464420F4817
:104B700008F0C6F8200070BD012252420C4BE1E75C
:104B800022002900002001F0BFFA041EEFD1032407
:104B90006442ECE703246442ECE703246442E9E75F
:104BA00003246442E6E7C04640420F00D84000209C
:104BB000FFFFFF7FF0B5C64600B580460C00FDF74D
:104BC00081FB314A002312184B41002B07DB2F4891
:104BD00008F00EF9002806D180BCB846F0BD0122CD
:104BE00052422B4BF3E7FFF793FF002849D1294BA3
:104BF0000020002118605960244808F081F8EBE794
:104C000001200021404201F00DF8002001F098FA47
:104C1000FFF77EFF0028EFD0002001F01BFB0028EB
:104C200020D0A542E8DA661B002001F013FB020049
:104C3000864200DC3200002AE2D0434659190020A7
:104C400001F0E4FA060001200021404200F0EAFFF2
:104C5000002001F075FAAD19FDF734FB0D4B18601B
:104C60005960DEE7FDF72EFB0A4B1E685F680A4AB3
:104C7000002392197B419942BED8D2D19042D0D91B
:104C8000BAE70025CDE7C04640420F00D8400020DB
:104C9000FFFFFF7F8825002020A107000048704704
:104CA00060F20010004870470CF2001010B50400CC
:104CB000154B1B78002B0ED0002C11D1134B144A2E
:104CC0005A80012301335B009BB21048C02292003E
:104CD0001343038010BD0C48112100F02DF8EBE7C1
:104CE000052C0ED80B4BA400E4580023122BE9D856
:104CF000E15C0029E6D00133044A58008152DBB25E
:104D0000F4E70020E6E7C046E0410020683A0020D2
:104D100009040000F4F1001010B5024800F03AF860
:104D200010BDC046C83E002010B502490822FEF75B
:104D3000FFF910BDC83E002010B5002901D00023A6
:104D40000AE0104B104A11483531FFF705FB0022ED
:104D50000DE03732C25401334A1E9A420ED90F2B4E
:104D60000CD85A080A4CA45CDA07F0D40422144187
:104D70000F222240092AECDC3032EBE7C018002376
:104D8000037010BD4CD9001074F2001054D90010FB
:104D9000C83E002030B589B0040004AD0D220021CA
:104DA0002800FEF7BFF90D2200216846FEF7BAF988
:104DB0004B232B700D226946280007F099FF002332
:104DC00004E05A1D69468A5CE2540133072BF8DD82
:104DD00009B030BD10B5038B3F333F229343022906
:104DE00015D0124C2268C260D31823609C0610D1E3
:104DF0000F4C6240634080246401A3420FD88906AF
:104E0000114380231B060B434268136010BD5B00F7
:104E1000E7E7084B084A09485121FFF79DFA084B7C
:104E2000054A06485321FFF797FAC046A43E0020E2
:104E30000000105038DB0010E4F2001068DB0010B6
:104E4000C4DB001070B505007F230340C40958007F
:104E500000194001244E80198570654265414570F6
:104E60000025C5700183C276012C1AD0DE001F49CF
:104E70008C4666441C495D002D196D0149198E60F0
:104E8000194D5E0036197601AD19A96800250D602F
:104E9000002B0CD1144A931900225A60144ADA608C
:104EA00070BDDE0013498C4666448660E8E7012C3D
:104EB0000ED05D1EED0010498C4665440A495B002A
:104EC0001B195B01C9184D601100FFF783FFE7E76D
:104ED0005D1EED0009498C46654403495B001B19C2
:104EE0005B01C9184D60EFE7A03A00208400105024
:104EF00000011050800010500C001050080010509D
:104F000010B504007F202040E40940000019400152
:104F1000024BC01800F032F910BDC046A03A002084
:104F200010B5002804D101210520FCF75DFA10BD61
:104F3000034B044AD42104484900FFF70DFAC04648
:104F40000CDC0010D4F2001068DB001010B5002853
:104F500005D1002200218020FFF7D2FF10BD034BB6
:104F6000034AD92103484900FFF7F6F90CDC001089
:104F7000C4F2001068DB0010024B80225202DA6497
:104F80007047C0460020115070B5041E26D100F0B5
:104F9000D3F8164D0C23AB671549FF220520FCF70B
:104FA00079FA144840220021FEF7BCF80022402183
:104FB0000020FFF747FF002240218020FFF742FF3B
:104FC00007F04EFF01232B6480239B05EB649023A5
:104FD000094AEA502000FFF7CFFF70BD074B084A8F
:104FE00076210848FF31FFF7B7F9C046000011509D
:104FF0007D060020A03A002010D001000CDC00103B
:10500000F8F2001068DB0010044B1970002904D07E
:10501000034A902380218902D1507047F741002034
:10502000002011500B785B0602D14B78052B00D085
:1050300070478A78014B1A60FAE7C04600001150A9
:1050400010B50A0000280DD18878097953791B0220
:105050000B435B05590DD2789207920FFFF7F2FED2
:10506000012010BD034B044AF0210448FF31FFF733
:1050700073F9C0460CDC0010B4F2001068DB0010BD
:1050800010B507F0EDFE10BD10B5040008001100CA
:105090001A00002C03D1FFF733FF012010BD034B92
:1050A000034AFE2103484900FFF756F90CDC0010C3
:1050B000A4F2001068DB001010B57F231800084030
:1050C0000B4205D1CB09012B0ED00222074B9A6669
:1050D000C909400040184001054BC0188022120148
:1050E000002107F0CDFE10BD0122EFE70020115096
:1050F000A03A002010B57F22100008400A4200D1DB
:1051000010BDC909400040184001044BC0180023DD
:10511000C3700022024907F0B3FEF1E7A03A002075
:10512000FFF7FFFF04E00A780270013101301A0036
:10513000531E002AF7D1704710B580235B040A4A3A
:1051400013600A4A13600A4B1A6880235B04934376
:10515000F9D18022520100210648FDF7E3FF064BFA
:1051600009225A6710BDC04600E0004000F0004030
:1051700008C00040000010500000115070B504003D
:105180000D001600837E002B17D1A6820023E38238
:105190000133A3762561200007F0D2FD002804D05A
:1051A0000C4A902380218902D150200007F048FE4C
:1051B00000280AD00123237770BD81780648FFF7C5
:1051C000A1FA200007F044FEDFE7200007F018FEF8
:1051D000F2E7C04600201150FCDC001070B505005D
:1051E000002408E09B1A5B01164A9B18DB68280024
:1051F00098470134E4B2144B1A782300511CA142A1
:105200000DDBA242EED9114B1B6862019B18002BEB
:10521000ECD10F490F48104AFFF774FA10E00F4C19
:10522000542200212000FDF77DFF201D1022FF21C8
:10523000FDF778FF200014302022FF21FDF772FFD8
:1052400070BDC04670F40010F6410020E428002034
:1052500040F4001034DD001016020000102C002075
:105260000268EFF3108172B61368002BFCD0BFF315
:105270005F8F4160704710B5FFF7B0FF00F054FE3C
:1052800010BD70B505000C001600486900F056FE10
:105290006369320001212800984770BDF0B5DE46F1
:1052A00057464E464546E0B583B082460139C8B2FE
:1052B000FFF7F8FC002803D043789946022B0CD066
:1052C00055495648564AFFF71DFA002003B0F0BC76
:1052D000BB46B246A946A046F0BDC5796C11012275
:1052E000504B1440240119781026B1432143197002
:1052F000AD112A405201C9B22024A1430A431A70B9
:10530000060009368278C3781B02134383469B4408
:105310004B460193370066E0FB7899463A78BF1810
:1053200068E03D493D48404AFFF7ECF90020CDE7F1
:10533000009AD31A5B013D4E9E1933692200390051
:1053400050469847082801D9844216D20135EDB25B
:10535000374B1B7800955A1CAA423EDBAB42E7D97B
:10536000344B1B686E019E19002EE6D12A492B484A
:10537000314AFFF7C7F90020A8E73400009E0090EB
:105380004B46012B11D00020494681421BD9BB78E6
:105390001B18DBB2234AD2181279FF2A0CD1214AFA
:1053A000D3181D710130C0B2EFE72169234A914241
:1053B000E9D1019B9946E6E717491848204AFFF7CB
:1053C000A1F9002082E71F482B00009C2200390031
:1053D00001F036FCA446674400E02E00144B1B7815
:1053E00001339E420FDC5F4514D27B780B2B93D0A8
:1053F000012399467A78042A93D15B46DA1B93B24B
:1054000000251C00A4E7044904480F4AFFF77AF975
:1054100000205BE7012059E714F4001034DD001090
:10542000C7030000102C0020E203000070F40010FD
:10543000F6410020E4280020EB030000F96300108F
:105440000A040000242C0020190400007047704753
:10545000002070470020704770B505000C00CB7825
:1054600088780F2B53D89A002E498A589746FFF711
:1054700015FC021E05D012232100280000F008FDB3
:1054800046E0294929482A4AFFF73CF900203FE035
:10549000FFF798F9021E3CD08178C3781B020B43BA
:1054A0002100280000F0F4FC32E0022B0CD0FFF7C2
:1054B000D1FF021E2FD09178D3781B020B4321001D
:1054C000280000F0E5FC23E0FFF7ECFB021EF2D120
:1054D00015491648174AFFF715F9002018E02379F7
:1054E000617909021943FFF7E1FB021E15D0037829
:1054F0002100280000F0CCFC0AE0FFF7A9FF021E03
:105500000DD003782100280000F0C2FC00E000204C
:1055100070BD0020FCE70020FAE70020F8E700203B
:10552000F6E7C04614F30010FCF3001034DD001061
:105530002B0400005204000070477047704770470A
:10554000024B5878431E9841C0B27047102C00207F
:10555000024B18784007C00F7047C046102C00203F
:10556000034B1878FF38431E9841C0B27047C046BD
:10557000441E002070B50500FFF7F2FF061E01D0A3
:10558000300070BD254854220021FDF7CBFD244B8F
:1055900000221A70234C2000FCF716FA224B1C60E4
:1055A000224C2000FCF75CFA143C200001F0DFFEE6
:1055B0001F4B1C601F4B002B04D01F48FFF722F924
:1055C0001E4B1860002409E09B1A5B011C4A9B18C3
:1055D0005B68002B10D098470134E4B2164B1A7860
:1055E0002300511CA1420EDBA242EDD9134B1B68D4
:1055F00062019B18002BEBD1F12212491248520094
:10560000FFF780F8BCE7114B1D702800FFF7BCFCCA
:105610002800FFF785FC0126B2E7C046102C0020C9
:10562000F8410020C82B0020642C00203C1E0020E4
:10563000682C002005480010F6410020E4280020D6
:1056400070F4001064F4001034DD0010441E0020DB
:1056500070B50D00104B1E788B7870221A420DD158
:105660000E4B9978280001F095FA041E0DD0290000
:105670003000FFF7E5FC0400200070BD0849094830
:10568000094AFFF73FF80024F6E705490548074AAD
:10569000FFF738F8F0E7C046441E0020102C002029
:1056A000CCF3001034DD0010FC040000FD04000009
:1056B000F0B5D6464F464646C0B581460C001700A9
:1056C0009846089B9A46002517E09B2217491848E0
:1056D000D200FFF717F800263000E0BCBA46B1460A
:1056E000A846F0BD11491248124AFFF70BF8F3E73C
:1056F000099A13702378E4180135AF4214DD6378FA
:10570000052BE2D1E1788907890F4145DDD12100E0
:105710004846FFF79DFF061EE4D0A378DA09012A68
:10572000E6D052461370E5E70126D5E7DCF300101A
:1057300034DD0010D904000010B57F200840C909ED
:10574000400040183030044BC0180430034B196837
:1057500001F0DCF910BDC046102C0020642C0020A4
:1057600010B57F200840C909400040183030044B74
:10577000C0180430034B196801F0F0F910BDC046A1
:10578000102C0020642C0020F0B5C64600B582B075
:1057900001931A4800787F250D40CE09184C6F0000
:1057A000E419A41930342479E4071DD4144C6F0093
:1057B000E419A419303423790127BC4667463B43DA
:1057C0002371019BFFF760FC002813D10C4B6D0087
:1057D0005B199B1930331A7901218A431A711A799E
:1057E00003318A431A7105E006490748074AFEF764
:1057F00089FF002002B080BCB846F0BD441E0020E6
:10580000102C0020BCF3001034DD00102A0500002D
:1058100070B50A4B18787F240C40CD09FFF74CFC7B
:10582000074A640013195B1930331A7902210A43BD
:105830001A711A7901210A431A7170BD441E0020A1
:10584000102C002070B50A4B18787F240C40CD092D
:10585000FFF750FC074A640013195B1930331A79BB
:1058600002218A431A711A7901398A431A7170BD6B
:10587000441E0020102C00207F220A40C909044B3E
:1058800052009B185B18303318798007C00F70479F
:10589000102C0020F0B5C64600B582B005000C0003
:1058A000002000F04BFB237860221A40602A1AD0B7
:1058B000402A1FD02378DB06DB0E012B00D1D5E078
:1058C000022B00D115E1002B00D07BE1202A1BD058
:1058D000002A00D080E16378092B00D97EE19B008B
:1058E000C54AD3589F46C549C548C64AFEF70AFF70
:1058F000002668E1C44800F021FB220001212800B5
:10590000FEF764FF06005EE123790F2B00D95FE10B
:10591000BE4AD3181B79BE4A1278934207D2BD4AB9
:1059200011685B01C918002909D100264BE1511CFF
:10593000994200DA4EE19B1A5B01B74959182200DF
:105940002800FFF79EFC06003DE1200000F0FCFA75
:10595000A1782800FFF7FAFAAC4A137802210B432A
:10596000137001262FE1A94B5B786A46063213704B
:1059700001232100280000F08BFA012623E1A678FC
:10598000A24B5B78DBB2B3422BD0A04B5B78002BF1
:105990000CD19E4B5E70002E21D031002800FFF705
:1059A0007DFC061E12D0FFF7C7FD1AE0002128007B
:1059B000FFF72AFB2800FFF763FB944FBB7898465C
:1059C0002800FFF70BFC4346BB70E2E78B498C488D
:1059D000924AFEF797FE8D4B00225A70F3E0FFF7D4
:1059E000ACFD2100280000F03FFA0126EBE0210089
:1059F0002800FFF731FD0600E5E0A278E3781B02FE
:105A00001343012B01D00026DDE0804A13780821E2
:105A10000B4313702100280000F026FA0126D2E083
:105A2000A278E3781B021343012B01D00026CAE0C1
:105A3000764A137808218B4313702100280000F068
:105A400013FA0126BFE0714B1A785109920801231D
:105A50000B4002210A4013436A4606321380022398
:105A60002100280000F014FA0126ACE023790F2B66
:105A700000D9B5E0654AD3181B79654A127893427C
:105A800023D2644A11685B01C918002900D1A9E03A
:105A900022002800FFF7F5FB061E00D093E02378D4
:105AA00060221A4200D08EE063780A3B012B00D9B5
:105AB00089E0002000F042FA63780A2B0ED0210022
:105AC000280000F0D1F901267DE0511C994200DA4E
:105AD0008AE09B1A5B0150495918D9E76B469A1D19
